:08000000803102288731F62F40
:1009AA0020009C170800853107250800F10071080E
:1009BA008431EC2408007A30210099009A019801C8
:1009CA000800640080010131890BE72C0034F00033
:1009DA002000101EED2C700823009A000800013038
:1009EA0021009D0050309E009F019B019C01080040
:1009FA000030200090180130F0007008031D90109C
:100A0A00700808002000901E072D23009D1C0F2D42
:100A1A001D121D16190808007808F6007708F50057
:100A2A008531262585318531A425080048302300E3
:100A3A009F0090309D0026309E0022309B009C0132
:100A4A0008007608F3007508F20085315B258531C8
:100A5A000A308431DB240800603020009C009E01AB
:100A6A009D019F01FF309B009A0190108431D5248B
:100A7A000800F100F0013A30710203184A2D3030B3
:100A8A007102031C4A2DF001F00A700C080084312F
:100A9A00E02485318531FF25853185311B25853156
:100AAA008531312585318431F424080072088400A7
:100ABA00730885001200031908007208840073087D
:100ACA00850000088431DB2485310130F2070030CB
:100ADA00F33D5B2DF3007308F200F20DF20D2100D5
:100AEA001D087206833972069D001D140630F20035
:100AFA00F20B7D2D000021009D149D18822D1C08EB
:100B0A00F1001B08F0000800F401F501701C912D9A
:100B1A007208F4077308F53D0130F235F30D890BBD
:100B2A00922D0130F136F00C890B972D7008710463
:100B3A00031D8B2D7508F1007408F0000800F201FE
:100B4A002030F0007008F300B52D7108F00073082A
:100B5A0086008701700881000130F0007008F307F1
:100B6A007208F20AF000203070020318C62D843190
:100B7A00D8248531F0007008F1000A307106031D8F
:100B8A00AA2D73088600870181010800F501F60184
:100B9A00700871040319FA2DF701F70AF11BDF2D0A
:100BAA000130F035F10D890BD62D0130F4007408AF
:100BBA00F707D32D0130F535F60D890BE02D7108B5
:100BCA007302031DEA2D70087202031CF12D7008CE
:100BDA00F2027108F33B75140130F136F00C890BFF
:100BEA00F22D0130F702031DDF2D7608F10075089A
:100BFA00F000080022008C012B3021008C00033009
:100C0A0023008C0022008D01F03021008D0010306D
:100C1A0023008D0024008D01203022008E00DF3059
:100C2A0021008E00CB3023008E0024008E0121008B
:100C3A00951700308B1B0130F0008B1355303C00A8
:100C4A008F00AA308F000F100D30A40012303D0023
:100C5A009F0055303C008F00AA308F000F14701C83
:100C6A00382E8B1708008B13080085314C258631E6
:100C7A0022008E160C168531A42586316C30F700B9
:100C8A008830F8008531112586316030F7008830C8
:100C9A00F8008531112586315430F7008830F80084
:100CAA008531112586314730F7008830F8008531C3
:100CBA00112586317130F7008830F8008531112509
:100CCA0086318531A42586310D302000D300FD30D0
:100CDA00D200AD30D100D10B702ED20B702ED30BB7
:100CEA00702E000020000E1D772E8431FD248631DF
:100CFA00003A0319852E01302000D1005108FD0762
:100D0A0032307D02031C7A2EFD01043022008C064B
:100D1A00043085316F25863170082000D1007108B2
:100D2A00D2000930D236D10C890B972E5108D30044
:100D3A005308FC000830C0008830C1007C08D1008C
:100D4A00D2015108C2005208C300B430C4000030B6
:100D5A00C5000A30C6000030C7008631C826863171
:100D6A008531A425863138302000C0008830C10082
:100D7A000130C2000030C3008631C8268631853171
:100D8A00A42586317A2E4230F80078082000C9005E
:100D9A0020004108F9004008F800C00A0319C10AF6
:100DAA0078088400790885000008FA007A08D000DB
:100DBA00500803190800253050060319E92E500877
:100DCA008431DB248631CD2E2000CE01CF01CA0129
:100DDA00F32E4A150130C0070030C13D4008840097
:100DEA00410885000008303A0319EE2EFC2E40080F
:100DFA00840041088500000885313E258631031CA0
:100E0A00372F2000CE01CF010A30F0000030F10068
:100E1A0020004F08F3004E08F200853189258631FB
:100E2A0071082000CF007008CE00400884004108F5
:100E3A0085000008D03EF800FF3003180030F900A2
:100E4A007808CE077908CF3D0130C0070030C13D90
:100E5A004008840041088500000885313E25863116
:100E6A000318092F20004108F9004008F800C00AB9
:100E7A000319C10A78088400790885000008D0009F
:100E8A00003A0319F52F783A03194C2FCD2E20007A
:100E9A00490886008701403FCB00413FCC00023021
:100EAA00F8007808C907D001D00A0430500603199F
:100EBA007D2F5008F800F901F835F90D0030780750
:100ECA0084008830793D8500003FFA00013FFB002D
:100EDA007B084C02031D732F7A084B02031C7D2FDB
:100EEA000130F8007808D00704305006031D5E2F41
:100EFA005008F800F901F81BF9037908803AFA005A
:100F0A004F08803A7A02031D8C2F4E087802031884
:100F1A00992F20005008F800F901F81BF903780806
:100F2A00CE027908CF3B9C2F2000CE01CF014A1D6B
:100F3A00AC2F4E084F040319BD2F30308431DB2407
:100F4A008631FF302000CE07FF30CF3D9E2F4E085E
:100F5A004F040319BD2F20308431DB248631FF3042
:100F6A002000CE07FF30CF3D4E084F04031DB02F9F
:100F7A005008F8007808CD00FF30F8007808200003
:100F8A00CD074D0A0319CD2E4D08F800F901F835A1
:100F9A00F90D0030780784008830793D8500003FDC
:100FAA00F000013FF1004C08F3004B08F2008531D4
:100FBA00CB25863170080F39FA007A082000C8005C
:100FCA004808273E840088300318013E850000083F
:100FDA00F8007808D00050088431DB248631C12F0C
:100FEA000800203084000030850020308431E62457
:100FFA00200086313A2E0134003410340034003493
:10100A000134003410345334553457342C343234C8
:10101A004134333437342C34313446342534303483
:10102A00323478343034303425343034323478340D
:10103A003034303425343034323478343034303447
:10104A000A340034303431343234333434343534BD
:10105A00363437343834393461346234633464347E
:10106A006534663400345334553457342C343234AE
:10107A004134333438342C342534303432347834EF
:10108A000A34003453342D342C344D3461347334DF
:10109A00743465347234733431343634003453342E
:1010AA0052342C34323430343034303430343034F6
:1010BA00303430340034533453342C3432343034F2
:1010CA003034303430343034303430340034533403
:1010DA0046342C343234003452342C343134003413
:020000040001F9
:06000E00FC3FFF3F9F3F95
:00000001FF
