:08000000803102288731F62F40
:1009BA0020009C17080085310F250800F1007108F6
:1009CA008431F42408007A30210099009A019801B0
:1009DA000800640080010131890BEF2C0034F0001B
:1009EA002000101EF52C700823009A000800013020
:1009FA0021009D0050309E009F019B019C01080030
:100A0A000030200090180130F0007008031D90108B
:100A1A00700808002000901E0F2D23009D1C172D22
:100A2A001D121D16190808007808F6007708F50047
:100A3A0085312E2585318531AC25080048302300C3
:100A4A009F0090309D0026309E0022309B009C0122
:100A5A0008007608F3007508F200853163258531B0
:100A6A000A308431E3240800603020009C009E0193
:100A7A009D019F01FF309B009A0190108431DD2473
:100A8A000800F100F0013A3071020318522D30309B
:100A9A007102031C522DF001F00A700C0800843117
:100AAA00E82485318631072685318531232585312C
:100ABA008531392585318431FC2408007208840087
:100ACA00730885001200031908007208840073086D
:100ADA00850000088431E32485310130F2070030B3
:100AEA00F33D632DF3007308F200F20DF20D2100BD
:100AFA001D087206833972069D001D140630F20025
:100B0A00F20B852D000021009D149D188A2D1C08CA
:100B1A00F1001B08F0000800F401F501701C992D82
:100B2A007208F4077308F53D0130F235F30D890BAD
:100B3A009A2D0130F136F00C890B9F2D7008710443
:100B4A00031D932D7508F1007408F0000800F201E6
:100B5A002030F0007008F300BD2D7108F000730812
:100B6A0086008701700881000130F0007008F307E1
:100B7A007208F20AF000203070020318CE2D843178
:100B8A00E0248531F0007008F1000A307106031D77
:100B9A00B22D73088600870181010800F501F6016C
:100BAA00700871040319022EF701F70AF11BE72DE9
:100BBA000130F035F10D890BDE2D0130F400740897
:100BCA00F707DB2D0130F535F60D890BE82D710895
:100BDA007302031DF22D70087202031CF92D7008AE
:100BEA00F2027108F33B75140130F136F00C890BEF
:100BFA00FA2D0130F702031DE72D7608F10075087A
:100C0A00F000080022008C012B3021008C000330F8
:100C1A0023008C0022008D01F03021008D0010305D
:100C2A0023008D0024008D01203022008E00DF3049
:100C3A0021008E00CB3023008E0024008E0121007B
:100C4A00951700308B1B0130F0008B1355303C0098
:100C5A008F00AA308F000F100D30A40012303D0013
:100C6A009F0055303C008F00AA308F000F14701C73
:100C7A00402E8B1708008B130800853154258631C6
:100C8A0022008E160C168531AC2586316430F700A9
:100C9A008830F8008531192586314C30F7008830C4
:100CAA00F8008531192586315830F7008830F80068
:100CBA008531192586313F30F7008830F8008531B3
:100CCA00192586316930F7008830F80085311925F1
:100CDA0086318531AC2586310D302000CF00FD30BC
:100CEA00CE00AD30CD00CD0B782ECE0B782ECF0BAB
:100CFA00782E000020000E1D7F2E853105258631B5
:100D0A00003A03198D2E01302000CD004D08FD0751
:100D1A0032307D02031C822EFD01043022008C0633
:100D2A00043085317725863170082000CD0071089E
:100D3A00CE000930CE36CD0C890B9F2E4D08CF0040
:100D4A004F08FC000830F8008830F9007C08CD0014
:100D5A00CE014D08FA004E08FB008631C7268631BF
:100D6A008531AC2586313030F8008830F900023000
:100D7A00FA000030FB008631C72686318531AC2562
:100D8A008631822E7A302000C0004008C5007908DA
:100D9A002000C1007808C000F80A0319F90A4008BF
:100DAA008400410885000008C2004208CC004C08B3
:100DBA000319080025304C060319E82E4C08843123
:100DCA00E3248631CC2E2000CA01CB01C601F32EC2
:100DDA00200046150130F8070030F93D78088400F4
:100DEA00790885000008303A0319ED2EFC2E7808A0
:100DFA008400790885000008853146258631031C60
:100E0A00372F2000CA01CB010A30F0000030F10070
:100E1A0020004B08F3004A08F200853191258631FB
:100E2A0071082000CB007008CA007808840079088D
:100E3A0085000008D03EC000FF3003180030C10012
:100E4A004008CA074108CB3D0130F8070030F93D98
:100E5A00780884007908850000088531462586319E
:100E6A000318092F79082000C1007808C000F80A81
:100E7A000319F90A40088400410885000008CC00DB
:100E8A00003A0319F52F783A03194C2FCC2E20007B
:100E9A00450886008701403FC700413FC80002302D
:100EAA00C0004008C507CC01CC0A04304C0603191F
:100EBA007D2F4C08C000C101C035C10D003040076C
:100ECA0084008830413D8500003FC200013FC300D5
:100EDA0043084802031D732F42084702031C7D2F53
:100EEA000130C0004008CC0704304C06031D5E2FB9
:100EFA004C08C000C101C01BC1034108803AC200AE
:100F0A004B08803A4202031D8C2F4A0840020318FC
:100F1A00992F20004C08C000C101C01BC103400822
:100F2A00CA024108CB3B9C2F2000CA01CB01461DB7
:100F3A00AC2F4A084B040319BD2F30308431E32407
:100F4A008631FF302000CA07FF30CB3D9E2F4A086A
:100F5A004B040319BD2F20308431E3248631FF303E
:100F6A002000CA07FF30CB3D4A084B04031DB02FAF
:100F7A004C08C0004008C900FF302000C0004008EB
:100F8A00C907490A0319CC2E4908C000C101C03556
:100F9A00C10D0030400784008830413D8500003F84
:100FAA00F000013FF1004808F3004708F2008531DC
:100FBA00D325863170080F392000C2004208C400C8
:100FCA0044081F3E840088300318013E850000084B
:100FDA00C0004008CC004C088431E3248631C12F7C
:100FEA000800203084000030850020308431EE244F
:100FFA0020008631422E013400341034003400348B
:10100A000134003410345334553457342C343234C8
:10101A004134313443342C3430343134253430348F
:10102A00323478343034303430343034303430344C
:10103A000A340034303431343234333434343534CD
:10104A00363437343834393461346234633464348E
:10105A006534663400345334553457342C343234BE
:10106A004134313444342C342534303432347834F5
:10107A000A34003453342D342C344D3461347334EF
:10108A00743465347234733431343634003453343E
:10109A0053342C3431343034303430343034303406
:1010AA00303430340034533452342C343234303403
:1010BA003034303430343034303430340034533413
:1010CA0046342C343234003452342C343134003423
:020000040001F9
:06000E00FC3FFF3F9F3F95
:00000001FF
