:08000000803102288731F62F40
:100D6C0020009C1708008631E8260800F100710865
:100D7C008631CD2608007A30210099009A0198011D
:100D8C000800640080010131890BC82E0034F0008A
:100D9C002000101ECE2E700823009A00080001308F
:100DAC0021009D0050309E009F019B019C0108007A
:100DBC000030200090180130F0007008031D9010D6
:100DCC00700808002000901EE82E23009D1CF02EB9
:100DDC001D121D16190808007808F6007708F50092
:100DEC008731072786318731422708004830230096
:100DFC009F0090309D0026309E0022309B009C016D
:100E0C0008007608F3007508F20087312E27873129
:100E1C000A308631BC260800603020009C009E0100
:100E2C009D019F01FF309B009A0190108631B626E0
:100E3C0008008631C1268731873169278731863191
:100E4C00FC2687318731122787318631D526080059
:100E5C0072088400730885001200031908007208D8
:100E6C0084007308850000088631BC268731013068
:100E7C00F2070030F33D2E2FF2012030F000700805
:100E8C00F300532F7108F000730886008701700877
:100E9C0081000130F0007008F3077208F20AF000CC
:100EAC00203070020318642F8631B9268731F00088
:100EBC007008F1000A307106031D482F7308860074
:100ECC0087018101080022008C012B3021008C004D
:100EDC00033023008C0022008D01F03021008D00A6
:100EEC00103023008D0024008D01203022008E0054
:100EFC00DF3021008E00CB3023008E0024008E01C9
:100F0C002100951700308B1B0130F0008B135530EE
:100F1C003C008F00AA308F000F100D30A40012304F
:100F2C003D009F0055303C008F00AA308F000F14FD
:100F3C00701CA22F8B1708008B13080087311F27FA
:100F4C00873122008E160C168731422787312530C7
:100F5C00F7008830F8008631F22687311930F70017
:100F6C008830F8008631F22687310D30F700883052
:100F7C00F8008631F22687310030F7008830F8000F
:100F8C008631F22687312A30F7008830F800863116
:100F9C00F22687318731422787310D30FB00FD3037
:100FAC00FA00AD30F900F90BD92FFA0BD92FFB0B46
:100FBC00D92F000020000E1DE02F8631DE26873150
:100FCC00003A0319ED2F0130F9007908FC07323093
:100FDC007C02031CE32FFC01043022008C06E32F5F
:100FEC00203084000030850020308631C726200058
:100FFC008731A42F53342D342C344D346134733455
:10100C0074346534723473343134363400345334BC
:10101C0052342C3432343034303430343034303484
:10102C00303430340034533453342C34383430347A
:10103C003034303430343034303430340034533491
:10104C0046342C343234003452342C3431340034A1
:020000040001F9
:06000E00FC3FFF3F9F3F95
:00000001FF
