:08000000803102288731F62F40
:100ED00020009C1708007A30210099009A0198019F
:100EE0000800640080010131890B722F003400304A
:100EF000200090180130F0007008031D9010700859
:100F00000800483023009F0080309D0026309E005E
:100F100022309B009C01080087316B278731873185
:100F2000BB27873187318127873187319827080090
:100F3000603020009C009E019D019F01FF309B00BE
:100F40009A01901087316827080087318C278731F4
:100F5000873177278731003A0319B22F0130F1002A
:100F60007108F20732307202031CA82FF20104301C
:100F700022008C06A82F22008C012B3021008C002F
:100F8000033023008C0022008D01F03021008D0001
:100F9000103023008D0024008D01203022008E00AF
:100FA000DF3021008E00CB3023008E0024008E0124
:100FB0002100951700308B1B0130F0008B1355304A
:100FC0003C008F00AA308F000F100D30A4001230AB
:100FD0003D009F0055303C008F00AA308F000F1459
:100FE000701CF42F8B1708008B130800203084002E
:100FF0000030850020308731712720008731A52FF0
:020000040001F9
:06000E00FC3FFF3F9F3F95
:00000001FF
