:08000000803102288731F62F40
:1009D60020009C17080085311D250800F1007108CC
:1009E6008531022508007A30210099009A01980184
:1009F6000800640080010131890BFD2C0034F000F1
:100A06002000101E032D700823009A0008000130F4
:100A160021009D0050309E009F019B019C01080013
:100A26000030200090180130F0007008031D90106F
:100A3600700808002000901E1D2D23009D1C252DEA
:100A46001D121D16190808007808F6007708F5002B
:100A560085313C2585318531BA250800483023008B
:100A66009F0090309D0026309E0022309B009C0106
:100A760008007608F3007508F20085317125853186
:100A86000A308431F1240800603020009C009E0169
:100A96009D019F01FF309B009A0190108431EB2449
:100AA6000800F100F0013A3071020318602D303071
:100AB6007102031C602DF001F00A700C08008431ED
:100AC600F6248531863115268531853131258531E6
:100AD60085314725853185310A250800720884004D
:100AE6007308850012000319080072088400730851
:100AF600850000088431F12485310130F207003089
:100B0600F33D712DF3007308F200F20DF20D210092
:100B16001D087206833972069D001D140630F20008
:100B2600F20B932D000021009D149D18982D1C0892
:100B3600F1001B08F0000800F401F501701CA72D58
:100B46007208F4077308F53D0130F235F30D890B91
:100B5600A82D0130F136F00C890BAD2D700871040B
:100B6600031DA12D7508F1007408F0000800F201BC
:100B76002030F0007008F300CB2D7108F0007308E8
:100B860086008701700881000130F0007008F307C5
:100B96007208F20AF000203070020318DC2D84314E
:100BA600EE248531F0007008F1000A307106031D4D
:100BB600C02D73088600870181010800F501F60142
:100BC600700871040319102EF701F70AF11BF52DB1
:100BD6000130F035F10D890BEC2D0130F40074086D
:100BE600F707E92D0130F535F60D890BF62D71085D
:100BF6007302031D002E70087202031C072E700874
:100C0600F2027108F33B75140130F136F00C890BD2
:100C1600082E0130F702031DF52D7608F100750840
:100C2600F000080022008C012B3021008C000330DC
:100C360023008C0022008D01F03021008D00103041
:100C460023008D0024008D01203022008E00DF302D
:100C560021008E00CB3023008E0024008E0121005F
:100C6600951700308B1B0130F0008B1355303C007C
:100C76008F00AA308F000F100D30A40012303D00F7
:100C86009F0055303C008F00AA308F000F14701C57
:100C96004E2E8B1708008B1308008531622586318E
:100CA60022008E160C168531BA2586314E30F70095
:100CB6008830F8008531272586314230F7008830A4
:100CC600F8008531272586313630F7008830F80060
:100CD6008531272586312930F7008830F80085319F
:100CE600272586315330F7008830F80085312725CF
:100CF60086318531BA2586310D302000CF00FD3092
:100D0600CE00AD30CD00CD0B862ECE0B862ECF0B72
:100D1600862E000020000E1D8D2E8531132586316E
:100D2600003A03199B2E01302000CD004D08FD0727
:100D360032307D02031C902EFD01043022008C0609
:100D4600043085318525863170082000CD00710874
:100D5600CE000930CE36CD0C890BAD2E4D08CF0016
:100D66004F08FC001930F8008830F9007C08CD00E7
:100D7600CE014D08FA004E08FB008631C7268631A3
:100D86008531BA258631902E7A302000C000400881
:100D9600C50079082000C1007808C000F80A0319C8
:100DA600F90A40088400410885000008C20042088C
:100DB600CC004C080319080025304C060319E82E10
:100DC6004C088431F1248631CC2E2000CA01CB0197
:100DD600C601F32E200046150130F8070030F93D14
:100DE60078088400790885000008303A0319ED2E4A
:100DF600FC2E780884007908850000088531542582
:100E06008631031C372F2000CA01CB010A30F000BF
:100E16000030F10020004B08F3004A08F20085314B
:100E26009F25863171082000CB007008CA0078081B
:100E36008400790885000008D03EC000FF30031802
:100E46000030C1004008CA074108CB3D0130F80711
:100E56000030F93D7808840079088500000885315E
:100E6600542586310318092F79082000C100780817
:100E7600C000F80A0319F90A4008840041088500F1
:100E86000008CC00003A0319F52F783A03194C2FC5
:100E9600CC2E2000450886008701403FC700413F11
:100EA600C8000230C0004008C507CC01CC0A043097
:100EB6004C0603197D2F4C08C000C101C035C10D79
:100EC6000030400784008830413D8500003FC20065
:100ED600013FC30043084802031D732F420847021F
:100EE600031C7D2F0130C0004008CC0704304C069F
:100EF600031D5E2F4C08C000C101C01BC103410881
:100F0600803AC2004B08803A4202031D8C2F4A08E1
:100F160040020318992F20004C08C000C101C01BD5
:100F2600C1034008CA024108CB3B9C2F2000CA01DE
:100F3600CB01461DAC2F4A084B040319BD2F303098
:100F46008431F1248631FF302000CA07FF30CB3DC3
:100F56009E2F4A084B040319BD2F20308431F124FB
:100F66008631FF302000CA07FF30CB3D4A084B04CC
:100F7600031DB02F4C08C0004008C900FF302000F8
:100F8600C0004008C907490A0319CC2E4908C00009
:100F9600C101C035C10D0030400784008830413D95
:100FA6008500003FF000013FF1004808F3004708C4
:100FB600F2008531E125863170080F392000C20024
:100FC6004208C4004408083E840088300318013EE5
:100FD60085000008C0004008CC004C088431F1248C
:100FE6008631C12F08002030840000308500203073
:100FF6008431FC2420008631502E01340034103414
:101006000034003401340034103430343134323496
:10101600333434343534363437343834393461344F
:10102600623463346434653466340034533455347E
:1010360057342C3432344134313439342C34253459
:101046003034323478340D340A34003453342D3489
:101056002C344D34613473347434653472347334DF
:10106600313436340034533452342C343234303440
:101076003034303430343034303430340034533457
:1010860053342C3443343034303430343034303408
:10109600303430340034533446342C343234003453
:0810A60052342C3431340034C3
:020000040001F9
:06000E00FC3FFF3F9F3F95
:00000001FF
