:08000000803102288731F62F40
:1008A20020009C170800843179240800F1007108A7
:1008B2008431682408007A30210099009A01980155
:1008C2000800640080010131890B632C0034F000C0
:1008D2002000101E692C700823009A0008000130C5
:1008E20021009D0050309E009F019B019C01080049
:1008F2002000901E792C23009D1C812C1D121D1698
:10090200190808000030200090180130F00070082B
:10091200031D9010700808007708F5007808F600AB
:100922008431AD248431853172250800483023009A
:100932009F0090309D0026309E0022309B009C013B
:10094200080080302C009C007F309B00C0309A0051
:100952003F3025009E0508007508F2007608F30076
:100962008431E52484310A30843157240800603010
:1009720020009C009E019D019F01FF309B009A0177
:100982009010843151240800F100F0013A307102D4
:100992000318D12C30307102031CD12CF001F00A63
:1009A200700C080084315C24843186310026843145
:1009B2008431972484318431B82484318431A2244F
:1009C2008431843170240800720884007308850021
:1009D20012000319080072088400730885000008D9
:1009E2008431572484310130F2070030F33DE52C85
:1009F200F3007308F200F20DF20D21001D087206D9
:100A0200833972069D001D140630F200F20B072D89
:100A1200000021009D149D180C2D1C08F1001B08DC
:100A2200F0000800F401F501701C1B2D7208F40798
:100A32007308F53D0130F235F30D890B1C2D0130A1
:100A4200F136F00C890B212D70087104031D152D50
:100A52007508F1007408F00008002000D30065302A
:100A6200530203183B2D5308FC00FD017C08D10002
:100A72007D083E2D6430D1000030D2004F30C000DE
:100A82008830C1005208C3005108C2008631C8260E
:100A92008531853172250800FD0027302000C00015
:100AA2008830C1007D08D100D2015108C20052082D
:100AB200C3008631C82685318531722585316E3075
:100AC2002000C0008830C1007C08D100D20151084A
:100AD200C2005208C3008631C8268531853172258D
:100AE2000800F2012030F0007008F300832D710835
:100AF200F000730886008701700881000130F00061
:100B02007008F3077208F20AF0002030700203182E
:100B1200942D843154248531F0007008F1000A309C
:100B22007106031D782D7308860087018101080074
:100B3200FC0008302000C0008830C1007C08D400CE
:100B4200D5015408C2005508C3005108D600D70188
:100B52005608C4005708C5005208D800D9015808E1
:100B6200C6005908C7008631C826853185317225ED
:100B720085315F302000C0008830C1005308D400A6
:100B8200D5015408C2005508C3008631C8268531F4
:100B9200853172250800F501F60170087104031908
:100BA200FB2DF701F70AF11BE02D0130F035F10DB5
:100BB200890BD72D0130F4007408F707D42D0130CA
:100BC200F535F60D890BE12D71087302031DEB2D2E
:100BD20070087202031CF22D7008F2027108F33BD6
:100BE20075140130F136F00C890BF32D0130F70248
:100BF200031DE02D7608F1007508F00008002200C0
:100C02008C012B3021008C00033023008C00220049
:100C12008D01F03021008D00103023008D00240062
:100C22008D01203022008E005F3021008E004B307B
:100C320023008E0024008E012100951700308B1BAB
:100C42000130F0008B1355303C008F00AA308F002A
:100C52000F100D30A40012303D009F000F30A7008E
:100C620055303C008F00AA308F000F14701C3B2EB1
:100C72008B1708008B1308008431D324863122009D
:100C82000C16853172258631A130F7008830F800C4
:100C920084318D2486318930F7008830F800843120
:100CA2008D2486317D30F7008830F80084318D2420
:100CB20086319530F7008830F80084318D248631F2
:100CC200A630F7008830F80084318D2486318531D2
:100CD200722586310D302000DC00FD30DB00AD30A6
:100CE200DA00DA0B722EDB0B722EDC0B722E000096
:100CF20020000E19822E792E22000C1120000E1DCA
:100D02007F2E20000E1D7D2E843183248631003AF1
:100D12000319902E01302000DA005A08DD07323024
:100D220020005D02031C822E04308431F9248631B6
:100D320070082000DA007108DB000930DB36DA0CBB
:100D4200890B9F2E5A08DC005C08DE00DD015E087C
:100D520085312E258631B4302000DA005A08D100C0
:100D6200EB30DB005B08D200D301D30A5E08853189
:100D72009925863102302000DA005A08FC005E080C
:100D820085314D258631043022008C06822E423078
:100D9200F80078082000C90020004108F900400846
:100DA200F800C00A0319C10A78088400790885008E
:100DB2000008FA007A08D00050080319080025300C
:100DC20050060319E92E5008843157248631CD2E5E
:100DD2002000CE01CF01CA01F32E4A150130C0070F
:100DE2000030C13D40088400410885000008303AC7
:100DF2000319EE2EFC2E40088400410885000008ED
:100E02008431C5248631031C372F2000CE01CF0147
:100E12000A30F0000030F10020004F08F3004E08C5
:100E2200F20085311325863171082000CF00700849
:100E3200CE0040088400410885000008D03EF8003A
:100E4200FF3003180030F9007808CE077908CF3D4B
:100E52000130C0070030C13D4008840041088500D0
:100E620000088431C52486310318092F2000410867
:100E7200F9004008F800C00A0319C10A7808840082
:100E8200790885000008D000003A0319F52F783A56
:100E920003194C2FCD2E2000490886008701403FC0
:100EA200CB00413FCC000230F8007808C907D001DE
:100EB200D00A0430500603197D2F5008F800F901BA
:100EC200F835F90D0030780784008830793D8500C7
:100ED200003FFA00013FFB007B084C02031D732F09
:100EE2007A084B02031C7D2F0130F8007808D007E6
:100EF20004305006031D5E2F5008F800F901F81B5C
:100F0200F9037908803AFA004F08803A7A02031D01
:100F12008C2F4E0878020318992F20005008F800F1
:100F2200F901F81BF9037808CE027908CF3B9C2F10
:100F32002000CE01CF014A1DAC2F4E084F040319E9
:100F4200BD2F3030843157248631FF302000CE0748
:100F5200FF30CF3D9E2F4E084F040319BD2F203086
:100F6200843157248631FF302000CE07FF30CF3D39
:100F72004E084F04031DB02F5008F8007808CD002A
:100F8200FF30F80078082000CD074D0A0319CD2E56
:100F92004D08F800F901F835F90D003078078400A2
:100FA2008830793D8500003FF000013FF1004C0898
:100FB200F3004B08F2008531CC25863170080F39D9
:100FC200FA007A082000C80048083E3E84008830B3
:100FD2000318013E85000008F8007808D000500888
:100FE200843157248631C12F08002030840000301C
:100FF2008500203084316224200086313D2E013468
:1010020000341034003400340134003410345334CA
:10101200553457342C3432344134333437342C344D
:101022003134463425343034323478343034303448
:10103200253430343234783430343034253430345A
:1010420032347834303430340A3400345334553442
:1010520057342C3432344134313443342C34303428
:10106200313425343034323478343034303430341E
:101072003034303430340A340034303431343234A1
:1010820033343434353436343734383439346134E3
:101092006234633464346534663400345334553412
:1010A20057342C3432344134313439342C342534ED
:1010B2003034323478340D340A34003453345534F5
:1010C20057342C3432344134333438342C342534CC
:1010D2003034323478340A3400345334553457348B
:1010E2002C3432344134313444342C3425343034C9
:1010F200323478340A340034533452342C34323497
:1011020030343034303430343034303430340034ED
:10111200533453342C344634303430343034303455
:10112200303430343034003453342D342C344D3494
:10113200613473347434653472347334313400344A
:10114200533446342C343234003452342C34313457
:02115200003467
:020000040001F9
:06000E00FC3FFF3F9F3F95
:00000001FF
